{
  "contractName": "DarkNyan",
  "abi": [
    {
      "inputs": [],
      "stateMutability": "payable",
      "type": "constructor"
    },
    {
      "anonymous": false,
      "inputs": [
        {
          "indexed": true,
          "internalType": "address",
          "name": "owner",
          "type": "address"
        },
        {
          "indexed": true,
          "internalType": "address",
          "name": "spender",
          "type": "address"
        },
        {
          "indexed": false,
          "internalType": "uint256",
          "name": "value",
          "type": "uint256"
        }
      ],
      "name": "Approval",
      "type": "event"
    },
    {
      "anonymous": false,
      "inputs": [
        {
          "indexed": true,
          "internalType": "address",
          "name": "user",
          "type": "address"
        },
        {
          "indexed": false,
          "internalType": "uint256",
          "name": "amount",
          "type": "uint256"
        }
      ],
      "name": "FundsSentToFundingAddress",
      "type": "event"
    },
    {
      "anonymous": false,
      "inputs": [
        {
          "indexed": true,
          "internalType": "address",
          "name": "previousOwner",
          "type": "address"
        },
        {
          "indexed": true,
          "internalType": "address",
          "name": "newOwner",
          "type": "address"
        }
      ],
      "name": "OwnershipTransferred",
      "type": "event"
    },
    {
      "anonymous": false,
      "inputs": [
        {
          "indexed": true,
          "internalType": "address",
          "name": "user",
          "type": "address"
        },
        {
          "indexed": false,
          "internalType": "uint256",
          "name": "reward",
          "type": "uint256"
        }
      ],
      "name": "Rewards",
      "type": "event"
    },
    {
      "anonymous": false,
      "inputs": [
        {
          "indexed": true,
          "internalType": "address",
          "name": "from",
          "type": "address"
        },
        {
          "indexed": true,
          "internalType": "address",
          "name": "to",
          "type": "address"
        },
        {
          "indexed": false,
          "internalType": "uint256",
          "name": "value",
          "type": "uint256"
        }
      ],
      "name": "Transfer",
      "type": "event"
    },
    {
      "anonymous": false,
      "inputs": [
        {
          "indexed": true,
          "internalType": "address",
          "name": "user",
          "type": "address"
        },
        {
          "indexed": false,
          "internalType": "address",
          "name": "catnipPairAddress",
          "type": "address"
        }
      ],
      "name": "catnipPairAddressChanged",
      "type": "event"
    },
    {
      "anonymous": false,
      "inputs": [
        {
          "indexed": true,
          "internalType": "address",
          "name": "user",
          "type": "address"
        },
        {
          "indexed": false,
          "internalType": "uint256",
          "name": "amount",
          "type": "uint256"
        },
        {
          "indexed": false,
          "internalType": "uint256",
          "name": "totalLiquidityStaked",
          "type": "uint256"
        }
      ],
      "name": "catnipUniStaked",
      "type": "event"
    },
    {
      "anonymous": false,
      "inputs": [
        {
          "indexed": true,
          "internalType": "address",
          "name": "user",
          "type": "address"
        },
        {
          "indexed": false,
          "internalType": "uint256",
          "name": "amount",
          "type": "uint256"
        },
        {
          "indexed": false,
          "internalType": "uint256",
          "name": "totalLiquidityStaked",
          "type": "uint256"
        }
      ],
      "name": "catnipUniWithdrawn",
      "type": "event"
    },
    {
      "anonymous": false,
      "inputs": [
        {
          "indexed": true,
          "internalType": "address",
          "name": "user",
          "type": "address"
        },
        {
          "indexed": false,
          "internalType": "address",
          "name": "darkNyanPairAddress",
          "type": "address"
        }
      ],
      "name": "darkNyanPairAddressChanged",
      "type": "event"
    },
    {
      "anonymous": false,
      "inputs": [
        {
          "indexed": true,
          "internalType": "address",
          "name": "user",
          "type": "address"
        },
        {
          "indexed": false,
          "internalType": "uint256",
          "name": "amount",
          "type": "uint256"
        },
        {
          "indexed": false,
          "internalType": "uint256",
          "name": "totalLiquidityStaked",
          "type": "uint256"
        }
      ],
      "name": "darkNyanUniStaked",
      "type": "event"
    },
    {
      "anonymous": false,
      "inputs": [
        {
          "indexed": true,
          "internalType": "address",
          "name": "user",
          "type": "address"
        },
        {
          "indexed": false,
          "internalType": "uint256",
          "name": "amount",
          "type": "uint256"
        },
        {
          "indexed": false,
          "internalType": "uint256",
          "name": "totalLiquidityStaked",
          "type": "uint256"
        }
      ],
      "name": "darkNyanUniWithdrawn",
      "type": "event"
    },
    {
      "anonymous": false,
      "inputs": [
        {
          "indexed": true,
          "internalType": "address",
          "name": "user",
          "type": "address"
        },
        {
          "indexed": false,
          "internalType": "uint256",
          "name": "difficulty",
          "type": "uint256"
        }
      ],
      "name": "difficultyChanged",
      "type": "event"
    },
    {
      "anonymous": false,
      "inputs": [
        {
          "indexed": true,
          "internalType": "address",
          "name": "user",
          "type": "address"
        },
        {
          "indexed": false,
          "internalType": "address",
          "name": "votingAddress",
          "type": "address"
        }
      ],
      "name": "votingAddressChanged",
      "type": "event"
    },
    {
      "inputs": [
        {
          "internalType": "address",
          "name": "owner",
          "type": "address"
        },
        {
          "internalType": "address",
          "name": "spender",
          "type": "address"
        }
      ],
      "name": "allowance",
      "outputs": [
        {
          "internalType": "uint256",
          "name": "",
          "type": "uint256"
        }
      ],
      "stateMutability": "view",
      "type": "function"
    },
    {
      "inputs": [
        {
          "internalType": "address",
          "name": "spender",
          "type": "address"
        },
        {
          "internalType": "uint256",
          "name": "amount",
          "type": "uint256"
        }
      ],
      "name": "approve",
      "outputs": [
        {
          "internalType": "bool",
          "name": "",
          "type": "bool"
        }
      ],
      "stateMutability": "nonpayable",
      "type": "function"
    },
    {
      "inputs": [
        {
          "internalType": "address",
          "name": "account",
          "type": "address"
        }
      ],
      "name": "balanceOf",
      "outputs": [
        {
          "internalType": "uint256",
          "name": "",
          "type": "uint256"
        }
      ],
      "stateMutability": "view",
      "type": "function"
    },
    {
      "inputs": [],
      "name": "catnipUniswapV2Pair",
      "outputs": [
        {
          "internalType": "address",
          "name": "",
          "type": "address"
        }
      ],
      "stateMutability": "view",
      "type": "function"
    },
    {
      "inputs": [],
      "name": "darkNyanUniswapV2Pair",
      "outputs": [
        {
          "internalType": "address",
          "name": "",
          "type": "address"
        }
      ],
      "stateMutability": "view",
      "type": "function"
    },
    {
      "inputs": [],
      "name": "decimals",
      "outputs": [
        {
          "internalType": "uint8",
          "name": "",
          "type": "uint8"
        }
      ],
      "stateMutability": "view",
      "type": "function"
    },
    {
      "inputs": [
        {
          "internalType": "address",
          "name": "spender",
          "type": "address"
        },
        {
          "internalType": "uint256",
          "name": "subtractedValue",
          "type": "uint256"
        }
      ],
      "name": "decreaseAllowance",
      "outputs": [
        {
          "internalType": "bool",
          "name": "",
          "type": "bool"
        }
      ],
      "stateMutability": "nonpayable",
      "type": "function"
    },
    {
      "inputs": [],
      "name": "fundVotingAddress",
      "outputs": [
        {
          "internalType": "address",
          "name": "",
          "type": "address"
        }
      ],
      "stateMutability": "view",
      "type": "function"
    },
    {
      "inputs": [
        {
          "internalType": "address",
          "name": "spender",
          "type": "address"
        },
        {
          "internalType": "uint256",
          "name": "addedValue",
          "type": "uint256"
        }
      ],
      "name": "increaseAllowance",
      "outputs": [
        {
          "internalType": "bool",
          "name": "",
          "type": "bool"
        }
      ],
      "stateMutability": "nonpayable",
      "type": "function"
    },
    {
      "inputs": [],
      "name": "liquidityMultiplier",
      "outputs": [
        {
          "internalType": "uint256",
          "name": "",
          "type": "uint256"
        }
      ],
      "stateMutability": "view",
      "type": "function"
    },
    {
      "inputs": [],
      "name": "miningDifficulty",
      "outputs": [
        {
          "internalType": "uint256",
          "name": "",
          "type": "uint256"
        }
      ],
      "stateMutability": "view",
      "type": "function"
    },
    {
      "inputs": [],
      "name": "name",
      "outputs": [
        {
          "internalType": "string",
          "name": "",
          "type": "string"
        }
      ],
      "stateMutability": "view",
      "type": "function"
    },
    {
      "inputs": [],
      "name": "symbol",
      "outputs": [
        {
          "internalType": "string",
          "name": "",
          "type": "string"
        }
      ],
      "stateMutability": "view",
      "type": "function"
    },
    {
      "inputs": [],
      "name": "totalSupply",
      "outputs": [
        {
          "internalType": "uint256",
          "name": "",
          "type": "uint256"
        }
      ],
      "stateMutability": "view",
      "type": "function"
    },
    {
      "inputs": [
        {
          "internalType": "address",
          "name": "recipient",
          "type": "address"
        },
        {
          "internalType": "uint256",
          "name": "amount",
          "type": "uint256"
        }
      ],
      "name": "transfer",
      "outputs": [
        {
          "internalType": "bool",
          "name": "",
          "type": "bool"
        }
      ],
      "stateMutability": "nonpayable",
      "type": "function"
    },
    {
      "inputs": [
        {
          "internalType": "address",
          "name": "sender",
          "type": "address"
        },
        {
          "internalType": "address",
          "name": "recipient",
          "type": "address"
        },
        {
          "internalType": "uint256",
          "name": "amount",
          "type": "uint256"
        }
      ],
      "name": "transferFrom",
      "outputs": [
        {
          "internalType": "bool",
          "name": "",
          "type": "bool"
        }
      ],
      "stateMutability": "nonpayable",
      "type": "function"
    },
    {
      "inputs": [
        {
          "internalType": "address",
          "name": "newOwner",
          "type": "address"
        }
      ],
      "name": "transferOwnership",
      "outputs": [],
      "stateMutability": "nonpayable",
      "type": "function"
    },
    {
      "inputs": [
        {
          "internalType": "address",
          "name": "_account",
          "type": "address"
        }
      ],
      "name": "setVotingAddress",
      "outputs": [],
      "stateMutability": "nonpayable",
      "type": "function"
    },
    {
      "inputs": [
        {
          "internalType": "address",
          "name": "_uniV2address",
          "type": "address"
        }
      ],
      "name": "setCatnipPairAddress",
      "outputs": [],
      "stateMutability": "nonpayable",
      "type": "function"
    },
    {
      "inputs": [
        {
          "internalType": "address",
          "name": "_uniV2address",
          "type": "address"
        }
      ],
      "name": "setdarkNyanPairAddress",
      "outputs": [],
      "stateMutability": "nonpayable",
      "type": "function"
    },
    {
      "inputs": [
        {
          "internalType": "uint256",
          "name": "amount",
          "type": "uint256"
        }
      ],
      "name": "setMiningDifficulty",
      "outputs": [],
      "stateMutability": "nonpayable",
      "type": "function"
    },
    {
      "inputs": [
        {
          "internalType": "uint256",
          "name": "amount",
          "type": "uint256"
        }
      ],
      "name": "stakeCatnipUni",
      "outputs": [],
      "stateMutability": "nonpayable",
      "type": "function"
    },
    {
      "inputs": [
        {
          "internalType": "uint256",
          "name": "amount",
          "type": "uint256"
        }
      ],
      "name": "withdrawCatnipUni",
      "outputs": [],
      "stateMutability": "nonpayable",
      "type": "function"
    },
    {
      "inputs": [
        {
          "internalType": "uint256",
          "name": "amount",
          "type": "uint256"
        }
      ],
      "name": "stakeDarkNyanUni",
      "outputs": [],
      "stateMutability": "nonpayable",
      "type": "function"
    },
    {
      "inputs": [
        {
          "internalType": "uint256",
          "name": "amount",
          "type": "uint256"
        }
      ],
      "name": "withdrawDarkNyanUni",
      "outputs": [],
      "stateMutability": "nonpayable",
      "type": "function"
    },
    {
      "inputs": [
        {
          "internalType": "address",
          "name": "_account",
          "type": "address"
        }
      ],
      "name": "getNipUniStakeAmount",
      "outputs": [
        {
          "internalType": "uint256",
          "name": "",
          "type": "uint256"
        }
      ],
      "stateMutability": "view",
      "type": "function"
    },
    {
      "inputs": [
        {
          "internalType": "address",
          "name": "_account",
          "type": "address"
        }
      ],
      "name": "getDNyanUniStakeAmount",
      "outputs": [
        {
          "internalType": "uint256",
          "name": "",
          "type": "uint256"
        }
      ],
      "stateMutability": "view",
      "type": "function"
    },
    {
      "inputs": [
        {
          "internalType": "address",
          "name": "_account",
          "type": "address"
        }
      ],
      "name": "myRewardsBalance",
      "outputs": [
        {
          "internalType": "uint256",
          "name": "",
          "type": "uint256"
        }
      ],
      "stateMutability": "view",
      "type": "function"
    },
    {
      "inputs": [],
      "name": "getReward",
      "outputs": [],
      "stateMutability": "nonpayable",
      "type": "function"
    },
    {
      "inputs": [],
      "name": "toggleFundsTransfer",
      "outputs": [],
      "stateMutability": "nonpayable",
      "type": "function"
    },
    {
      "inputs": [
        {
          "internalType": "uint256",
          "name": "amount",
          "type": "uint256"
        }
      ],
      "name": "sendDarkNyanToFund",
      "outputs": [],
      "stateMutability": "nonpayable",
      "type": "function"
    }
  ],
  "bytecode": "0x60806040526000600860146101000a81548160ff021916908315150217905550612710600a5562989680600b556040518060400160405280600881526020017f6461726b4e59414e0000000000000000000000000000000000000000000000008152506040518060400160405280600581526020017f644e59414e0000000000000000000000000000000000000000000000000000008152508160039080519060200190620000b092919062000467565b508060049080519060200190620000c992919062000467565b506012600560006101000a81548160ff021916908360ff160217905550505033600760006101000a81548173ffffffffffffffffffffffffffffffffffffffff021916908373ffffffffffffffffffffffffffffffffffffffff160217905550600060649050620001623362000156670de0b6b3a7640000846200017060201b62003bb81790919060201c565b620001fb60201b60201c565b436009819055505062000516565b600080831415620001855760009050620001f5565b60008284029050828482816200019757fe5b0414620001f0576040517f08c379a00000000000000000000000000000000000000000000000000000000081526004018080602001828103825260218152602001806200480a6021913960400191505060405180910390fd5b809150505b92915050565b600073ffffffffffffffffffffffffffffffffffffffff168273ffffffffffffffffffffffffffffffffffffffff1614156200029f576040517f08c379a000000000000000000000000000000000000000000000000000000000815260040180806020018281038252601f8152602001807f45524332303a206d696e7420746f20746865207a65726f20616464726573730081525060200191505060405180910390fd5b620002b360008383620003d960201b60201c565b620002cf81600254620003de60201b62003ae61790919060201c565b6002819055506200032d816000808573ffffffffffffffffffffffffffffffffffffffff1673ffffffffffffffffffffffffffffffffffffffff16815260200190815260200160002054620003de60201b62003ae61790919060201c565b6000808473ffffffffffffffffffffffffffffffffffffffff1673ffffffffffffffffffffffffffffffffffffffff168152602001908152602001600020819055508173ffffffffffffffffffffffffffffffffffffffff16600073ffffffffffffffffffffffffffffffffffffffff167fddf252ad1be2c89b69c2b068fc378daa952ba7f163c4a11628f55a4df523b3ef836040518082815260200191505060405180910390a35050565b505050565b6000808284019050838110156200045d576040517f08c379a000000000000000000000000000000000000000000000000000000000815260040180806020018281038252601b8152602001807f536166654d6174683a206164646974696f6e206f766572666c6f77000000000081525060200191505060405180910390fd5b8091505092915050565b828054600181600116156101000203166002900490600052602060002090601f016020900481019282601f10620004aa57805160ff1916838001178555620004db565b82800160010185558215620004db579182015b82811115620004da578251825591602001919060010190620004bd565b5b509050620004ea9190620004ee565b5090565b6200051391905b808211156200050f576000816000905550600101620004f5565b5090565b90565b6142e480620005266000396000f3fe608060405234801561001057600080fd5b50600436106101e45760003560e01c806395d89b411161010f578063b6541945116100a2578063ea15de0511610071578063ea15de051461097b578063ee02b3c7146109d3578063f2fde38b146109dd578063f571e00e14610a21576101e4565b8063b654194514610873578063d7305bb814610891578063dd62ed3e146108bf578063e10a1d7914610937576101e4565b8063a9059cbb116100de578063a9059cbb14610777578063b40b9bb6146107dd578063b419ef02146107fb578063b41abf7d14610845576101e4565b806395d89b41146106085780639fd3adf61461068b578063a457c2d7146106b9578063a57306dc1461071f576101e4565b806323b872dd11610187578063598177171161015657806359817717146104fa57806370a082311461053e5780637a6cfcab146105965780637b12d426146105da576101e4565b806323b872dd146103e0578063313ce56714610466578063395093511461048a5780633d18b912146104f0576101e4565b8063095ea7b3116101c3578063095ea7b3146102e45780630a4cb9391461034a57806315b239011461037857806318160ddd146103c2576101e4565b80624f3264146101e957806306fdde031461023357806307a7a342146102b6575b600080fd5b6101f1610a79565b604051808273ffffffffffffffffffffffffffffffffffffffff1673ffffffffffffffffffffffffffffffffffffffff16815260200191505060405180910390f35b61023b610a9f565b6040518080602001828103825283818151815260200191508051906020019080838360005b8381101561027b578082015181840152602081019050610260565b50505050905090810190601f1680156102a85780820380516001836020036101000a031916815260200191505b509250505060405180910390f35b6102e2600480360360208110156102cc57600080fd5b8101908080359060200190929190505050610b41565b005b610330600480360360408110156102fa57600080fd5b81019080803573ffffffffffffffffffffffffffffffffffffffff16906020019092919080359060200190929190505050610c22565b604051808215151515815260200191505060405180910390f35b6103766004803603602081101561036057600080fd5b8101908080359060200190929190505050610c40565b005b610380610cf4565b604051808273ffffffffffffffffffffffffffffffffffffffff1673ffffffffffffffffffffffffffffffffffffffff16815260200191505060405180910390f35b6103ca610d1a565b6040518082815260200191505060405180910390f35b61044c600480360360608110156103f657600080fd5b81019080803573ffffffffffffffffffffffffffffffffffffffff169060200190929190803573ffffffffffffffffffffffffffffffffffffffff16906020019092919080359060200190929190505050610d24565b604051808215151515815260200191505060405180910390f35b61046e610dfd565b604051808260ff1660ff16815260200191505060405180910390f35b6104d6600480360360408110156104a057600080fd5b81019080803573ffffffffffffffffffffffffffffffffffffffff16906020019092919080359060200190929190505050610e14565b604051808215151515815260200191505060405180910390f35b6104f8610ec7565b005b61053c6004803603602081101561051057600080fd5b81019080803573ffffffffffffffffffffffffffffffffffffffff169060200190929190505050611378565b005b6105806004803603602081101561055457600080fd5b81019080803573ffffffffffffffffffffffffffffffffffffffff169060200190929190505050611515565b6040518082815260200191505060405180910390f35b6105d8600480360360208110156105ac57600080fd5b81019080803573ffffffffffffffffffffffffffffffffffffffff16906020019092919050505061155d565b005b610606600480360360208110156105f057600080fd5b8101908080359060200190929190505050611697565b005b610610611c3e565b6040518080602001828103825283818151815260200191508051906020019080838360005b83811015610650578082015181840152602081019050610635565b50505050905090810190601f16801561067d5780820380516001836020036101000a031916815260200191505b509250505060405180910390f35b6106b7600480360360208110156106a157600080fd5b8101908080359060200190929190505050611ce0565b005b610705600480360360408110156106cf57600080fd5b81019080803573ffffffffffffffffffffffffffffffffffffffff169060200190929190803590602001909291905050506121bb565b604051808215151515815260200191505060405180910390f35b6107616004803603602081101561073557600080fd5b81019080803573ffffffffffffffffffffffffffffffffffffffff169060200190929190505050612288565b6040518082815260200191505060405180910390f35b6107c36004803603604081101561078d57600080fd5b81019080803573ffffffffffffffffffffffffffffffffffffffff169060200190929190803590602001909291905050506124f5565b604051808215151515815260200191505060405180910390f35b6107e5612513565b6040518082815260200191505060405180910390f35b610803612519565b604051808273ffffffffffffffffffffffffffffffffffffffff1673ffffffffffffffffffffffffffffffffffffffff16815260200191505060405180910390f35b6108716004803603602081101561085b57600080fd5b810190808035906020019092919050505061253f565b005b61087b612a1a565b6040518082815260200191505060405180910390f35b6108bd600480360360208110156108a757600080fd5b8101908080359060200190929190505050612a20565b005b610921600480360360408110156108d557600080fd5b81019080803573ffffffffffffffffffffffffffffffffffffffff169060200190929190803573ffffffffffffffffffffffffffffffffffffffff16906020019092919050505061301b565b6040518082815260200191505060405180910390f35b6109796004803603602081101561094d57600080fd5b81019080803573ffffffffffffffffffffffffffffffffffffffff1690602001909291905050506130a2565b005b6109bd6004803603602081101561099157600080fd5b81019080803573ffffffffffffffffffffffffffffffffffffffff16906020019092919050505061323f565b6040518082815260200191505060405180910390f35b6109db61328b565b005b610a1f600480360360208110156109f357600080fd5b81019080803573ffffffffffffffffffffffffffffffffffffffff169060200190929190505050613311565b005b610a6360048036036020811015610a3757600080fd5b81019080803573ffffffffffffffffffffffffffffffffffffffff169060200190929190505050613462565b6040518082815260200191505060405180910390f35b601160009054906101000a900473ffffffffffffffffffffffffffffffffffffffff1681565b606060038054600181600116156101000203166002900480601f016020809104026020016040519081016040528092919081815260200182805460018160011615610100020316600290048015610b375780601f10610b0c57610100808354040283529160200191610b37565b820191906000526020600020905b815481529060010190602001808311610b1a57829003601f168201915b5050505050905090565b600860149054906101000a900460ff16610b5a57610c1f565b43600981905550610bd0600860009054906101000a900473ffffffffffffffffffffffffffffffffffffffff1682601060009054906101000a900473ffffffffffffffffffffffffffffffffffffffff1673ffffffffffffffffffffffffffffffffffffffff166134ae9092919063ffffffff16565b3373ffffffffffffffffffffffffffffffffffffffff167f9d7222da2cc210705445b483f242802ea957473cdd2257aacf02466f2e663482826040518082815260200191505060405180910390a25b50565b6000610c36610c2f613566565b848461356e565b6001905092915050565b600760009054906101000a900473ffffffffffffffffffffffffffffffffffffffff1673ffffffffffffffffffffffffffffffffffffffff163373ffffffffffffffffffffffffffffffffffffffff1614610c9a57600080fd5b80600b819055503373ffffffffffffffffffffffffffffffffffffffff167f694487741fda3a05899e5ccf8286720c2e1152708453a1a35c016249befc5fcd600b546040518082815260200191505060405180910390a250565b600860009054906101000a900473ffffffffffffffffffffffffffffffffffffffff1681565b6000600254905090565b6000610d31848484613765565b610df284610d3d613566565b610ded856040518060600160405280602881526020016141ef60289139600160008b73ffffffffffffffffffffffffffffffffffffffff1673ffffffffffffffffffffffffffffffffffffffff1681526020019081526020016000206000610da3613566565b73ffffffffffffffffffffffffffffffffffffffff1673ffffffffffffffffffffffffffffffffffffffff16815260200190815260200160002054613a269092919063ffffffff16565b61356e565b600190509392505050565b6000600560009054906101000a900460ff16905090565b6000610ebd610e21613566565b84610eb88560016000610e32613566565b73ffffffffffffffffffffffffffffffffffffffff1673ffffffffffffffffffffffffffffffffffffffff16815260200190815260200160002060008973ffffffffffffffffffffffffffffffffffffffff1673ffffffffffffffffffffffffffffffffffffffff16815260200190815260200160002054613ae690919063ffffffff16565b61356e565b6001905092915050565b336000600660008373ffffffffffffffffffffffffffffffffffffffff1673ffffffffffffffffffffffffffffffffffffffff16815260200190815260200160002060030154600a5481610f1757fe5b049050600660008373ffffffffffffffffffffffffffffffffffffffff1673ffffffffffffffffffffffffffffffffffffffff16815260200190815260200160002060000154431115611242576000610fbb600660008573ffffffffffffffffffffffffffffffffffffffff1673ffffffffffffffffffffffffffffffffffffffff1681526020019081526020016000206000015443613b6e90919063ffffffff16565b90506000600660008573ffffffffffffffffffffffffffffffffffffffff1673ffffffffffffffffffffffffffffffffffffffff1681526020019081526020016000206002015411156111695761112282611114600b546110bb600660008973ffffffffffffffffffffffffffffffffffffffff1673ffffffffffffffffffffffffffffffffffffffff168152602001908152602001600020600201546110ad87600660008c73ffffffffffffffffffffffffffffffffffffffff1673ffffffffffffffffffffffffffffffffffffffff16815260200190815260200160002060020154613bb890919063ffffffff16565b613bb890919063ffffffff16565b816110c257fe5b04600660008873ffffffffffffffffffffffffffffffffffffffff1673ffffffffffffffffffffffffffffffffffffffff16815260200190815260200160002060010154613ae690919063ffffffff16565b613ae690919063ffffffff16565b600660008573ffffffffffffffffffffffffffffffffffffffff1673ffffffffffffffffffffffffffffffffffffffff168152602001908152602001600020600101819055505b43600660008573ffffffffffffffffffffffffffffffffffffffff1673ffffffffffffffffffffffffffffffffffffffff168152602001908152602001600020600001819055508273ffffffffffffffffffffffffffffffffffffffff167fc083a1647e3ee591bf42b82564ffb4d16fdbb26068f0080da911c8d8300fd84a600660008673ffffffffffffffffffffffffffffffffffffffff1673ffffffffffffffffffffffffffffffffffffffff168152602001908152602001600020600101546040518082815260200191505060405180910390a2505b6000600660003373ffffffffffffffffffffffffffffffffffffffff1673ffffffffffffffffffffffffffffffffffffffff1681526020019081526020016000206001015490506000600660003373ffffffffffffffffffffffffffffffffffffffff1673ffffffffffffffffffffffffffffffffffffffff168152602001908152602001600020600101819055506112f833600a6112eb600885613bb890919063ffffffff16565b816112f257fe5b04613c3e565b6000600a611310600284613bb890919063ffffffff16565b8161131757fe5b0490506113243082613c3e565b3373ffffffffffffffffffffffffffffffffffffffff167fc083a1647e3ee591bf42b82564ffb4d16fdbb26068f0080da911c8d8300fd84a836040518082815260200191505060405180910390a250505050565b600760009054906101000a900473ffffffffffffffffffffffffffffffffffffffff1673ffffffffffffffffffffffffffffffffffffffff163373ffffffffffffffffffffffffffffffffffffffff16146113d257600080fd5b80601160006101000a81548173ffffffffffffffffffffffffffffffffffffffff021916908373ffffffffffffffffffffffffffffffffffffffff160217905550601160009054906101000a900473ffffffffffffffffffffffffffffffffffffffff16601060006101000a81548173ffffffffffffffffffffffffffffffffffffffff021916908373ffffffffffffffffffffffffffffffffffffffff1602179055503373ffffffffffffffffffffffffffffffffffffffff167f10012a7cd512d5180f3040fd3e1eae0ac106b0c4b7d15dc80200c62d2526ed1a601160009054906101000a900473ffffffffffffffffffffffffffffffffffffffff16604051808273ffffffffffffffffffffffffffffffffffffffff1673ffffffffffffffffffffffffffffffffffffffff16815260200191505060405180910390a250565b60008060008373ffffffffffffffffffffffffffffffffffffffff1673ffffffffffffffffffffffffffffffffffffffff168152602001908152602001600020549050919050565b600760009054906101000a900473ffffffffffffffffffffffffffffffffffffffff1673ffffffffffffffffffffffffffffffffffffffff163373ffffffffffffffffffffffffffffffffffffffff16146115b757600080fd5b80600860006101000a81548173ffffffffffffffffffffffffffffffffffffffff021916908373ffffffffffffffffffffffffffffffffffffffff1602179055503373ffffffffffffffffffffffffffffffffffffffff167f62a51664e003fa1af643b4857cc1abcee4cd6b54791027e0fbe33bc924e41eac600860009054906101000a900473ffffffffffffffffffffffffffffffffffffffff16604051808273ffffffffffffffffffffffffffffffffffffffff1673ffffffffffffffffffffffffffffffffffffffff16815260200191505060405180910390a250565b336000600660008373ffffffffffffffffffffffffffffffffffffffff1673ffffffffffffffffffffffffffffffffffffffff16815260200190815260200160002060030154600a54816116e757fe5b049050600660008373ffffffffffffffffffffffffffffffffffffffff1673ffffffffffffffffffffffffffffffffffffffff16815260200190815260200160002060000154431115611a1257600061178b600660008573ffffffffffffffffffffffffffffffffffffffff1673ffffffffffffffffffffffffffffffffffffffff1681526020019081526020016000206000015443613b6e90919063ffffffff16565b90506000600660008573ffffffffffffffffffffffffffffffffffffffff1673ffffffffffffffffffffffffffffffffffffffff168152602001908152602001600020600201541115611939576118f2826118e4600b5461188b600660008973ffffffffffffffffffffffffffffffffffffffff1673ffffffffffffffffffffffffffffffffffffffff1681526020019081526020016000206002015461187d87600660008c73ffffffffffffffffffffffffffffffffffffffff1673ffffffffffffffffffffffffffffffffffffffff16815260200190815260200160002060020154613bb890919063ffffffff16565b613bb890919063ffffffff16565b8161189257fe5b04600660008873ffffffffffffffffffffffffffffffffffffffff1673ffffffffffffffffffffffffffffffffffffffff16815260200190815260200160002060010154613ae690919063ffffffff16565b613ae690919063ffffffff16565b600660008573ffffffffffffffffffffffffffffffffffffffff1673ffffffffffffffffffffffffffffffffffffffff168152602001908152602001600020600101819055505b43600660008573ffffffffffffffffffffffffffffffffffffffff1673ffffffffffffffffffffffffffffffffffffffff168152602001908152602001600020600001819055508273ffffffffffffffffffffffffffffffffffffffff167fc083a1647e3ee591bf42b82564ffb4d16fdbb26068f0080da911c8d8300fd84a600660008673ffffffffffffffffffffffffffffffffffffffff1673ffffffffffffffffffffffffffffffffffffffff168152602001908152602001600020600101546040518082815260200191505060405180910390a2505b601060009054906101000a900473ffffffffffffffffffffffffffffffffffffffff1673ffffffffffffffffffffffffffffffffffffffff166323b872dd3330866040518463ffffffff1660e01b8152600401808473ffffffffffffffffffffffffffffffffffffffff1673ffffffffffffffffffffffffffffffffffffffff1681526020018373ffffffffffffffffffffffffffffffffffffffff1673ffffffffffffffffffffffffffffffffffffffff1681526020018281526020019350505050602060405180830381600087803b158015611aef57600080fd5b505af1158015611b03573d6000803e3d6000fd5b505050506040513d6020811015611b1957600080fd5b810190808051906020019092919050505050611b8083600660003373ffffffffffffffffffffffffffffffffffffffff1673ffffffffffffffffffffffffffffffffffffffff16815260200190815260200160002060030154613ae690919063ffffffff16565b600660003373ffffffffffffffffffffffffffffffffffffffff1673ffffffffffffffffffffffffffffffffffffffff16815260200190815260200160002060030181905550611bdb83601254613ae690919063ffffffff16565b6012819055503373ffffffffffffffffffffffffffffffffffffffff167ffc9142c81f1618800bcc9f942bc007c58f2f00975089d7aa9c01ffa587b9263984601254604051808381526020018281526020019250505060405180910390a2505050565b606060048054600181600116156101000203166002900480601f016020809104026020016040519081016040528092919081815260200182805460018160011615610100020316600290048015611cd65780601f10611cab57610100808354040283529160200191611cd6565b820191906000526020600020905b815481529060010190602001808311611cb957829003601f168201915b5050505050905090565b336000600660008373ffffffffffffffffffffffffffffffffffffffff1673ffffffffffffffffffffffffffffffffffffffff16815260200190815260200160002060030154600a5481611d3057fe5b049050600660008373ffffffffffffffffffffffffffffffffffffffff1673ffffffffffffffffffffffffffffffffffffffff1681526020019081526020016000206000015443111561205b576000611dd4600660008573ffffffffffffffffffffffffffffffffffffffff1673ffffffffffffffffffffffffffffffffffffffff1681526020019081526020016000206000015443613b6e90919063ffffffff16565b90506000600660008573ffffffffffffffffffffffffffffffffffffffff1673ffffffffffffffffffffffffffffffffffffffff168152602001908152602001600020600201541115611f8257611f3b82611f2d600b54611ed4600660008973ffffffffffffffffffffffffffffffffffffffff1673ffffffffffffffffffffffffffffffffffffffff16815260200190815260200160002060020154611ec687600660008c73ffffffffffffffffffffffffffffffffffffffff1673ffffffffffffffffffffffffffffffffffffffff16815260200190815260200160002060020154613bb890919063ffffffff16565b613bb890919063ffffffff16565b81611edb57fe5b04600660008873ffffffffffffffffffffffffffffffffffffffff1673ffffffffffffffffffffffffffffffffffffffff16815260200190815260200160002060010154613ae690919063ffffffff16565b613ae690919063ffffffff16565b600660008573ffffffffffffffffffffffffffffffffffffffff1673ffffffffffffffffffffffffffffffffffffffff168152602001908152602001600020600101819055505b43600660008573ffffffffffffffffffffffffffffffffffffffff1673ffffffffffffffffffffffffffffffffffffffff168152602001908152602001600020600001819055508273ffffffffffffffffffffffffffffffffffffffff167fc083a1647e3ee591bf42b82564ffb4d16fdbb26068f0080da911c8d8300fd84a600660008673ffffffffffffffffffffffffffffffffffffffff1673ffffffffffffffffffffffffffffffffffffffff168152602001908152602001600020600101546040518082815260200191505060405180910390a2505b6120a83384601060009054906101000a900473ffffffffffffffffffffffffffffffffffffffff1673ffffffffffffffffffffffffffffffffffffffff166134ae9092919063ffffffff16565b6120fd83600660003373ffffffffffffffffffffffffffffffffffffffff1673ffffffffffffffffffffffffffffffffffffffff16815260200190815260200160002060030154613b6e90919063ffffffff16565b600660003373ffffffffffffffffffffffffffffffffffffffff1673ffffffffffffffffffffffffffffffffffffffff1681526020019081526020016000206003018190555061215883601254613b6e90919063ffffffff16565b6012819055503373ffffffffffffffffffffffffffffffffffffffff167f237bde176a926aa56330ff5cf7e17dcf313db083e6d8eb467d9af0238a8cdc8784601254604051808381526020018281526020019250505060405180910390a2505050565b600061227e6121c8613566565b846122798560405180606001604052806025815260200161428a60259139600160006121f2613566565b73ffffffffffffffffffffffffffffffffffffffff1673ffffffffffffffffffffffffffffffffffffffff16815260200190815260200160002060008a73ffffffffffffffffffffffffffffffffffffffff1673ffffffffffffffffffffffffffffffffffffffff16815260200190815260200160002054613a269092919063ffffffff16565b61356e565b6001905092915050565b600080600660008473ffffffffffffffffffffffffffffffffffffffff1673ffffffffffffffffffffffffffffffffffffffff16815260200190815260200160002060030154600a54816122d857fe5b049050600660008473ffffffffffffffffffffffffffffffffffffffff1673ffffffffffffffffffffffffffffffffffffffff168152602001908152602001600020600001544311156124ee57600061237c600660008673ffffffffffffffffffffffffffffffffffffffff1673ffffffffffffffffffffffffffffffffffffffff1681526020019081526020016000206000015443613b6e90919063ffffffff16565b90506000600660008673ffffffffffffffffffffffffffffffffffffffff1673ffffffffffffffffffffffffffffffffffffffff1681526020019081526020016000206002015411156124ec576124e3826124d5600b5461247c600660008a73ffffffffffffffffffffffffffffffffffffffff1673ffffffffffffffffffffffffffffffffffffffff1681526020019081526020016000206002015461246e87600660008d73ffffffffffffffffffffffffffffffffffffffff1673ffffffffffffffffffffffffffffffffffffffff16815260200190815260200160002060020154613bb890919063ffffffff16565b613bb890919063ffffffff16565b8161248357fe5b04600660008973ffffffffffffffffffffffffffffffffffffffff1673ffffffffffffffffffffffffffffffffffffffff16815260200190815260200160002060010154613ae690919063ffffffff16565b613ae690919063ffffffff16565b925050506124f0565b505b505b919050565b6000612509612502613566565b8484613765565b6001905092915050565b600b5481565b600f60009054906101000a900473ffffffffffffffffffffffffffffffffffffffff1681565b336000600660008373ffffffffffffffffffffffffffffffffffffffff1673ffffffffffffffffffffffffffffffffffffffff16815260200190815260200160002060030154600a548161258f57fe5b049050600660008373ffffffffffffffffffffffffffffffffffffffff1673ffffffffffffffffffffffffffffffffffffffff168152602001908152602001600020600001544311156128ba576000612633600660008573ffffffffffffffffffffffffffffffffffffffff1673ffffffffffffffffffffffffffffffffffffffff1681526020019081526020016000206000015443613b6e90919063ffffffff16565b90506000600660008573ffffffffffffffffffffffffffffffffffffffff1673ffffffffffffffffffffffffffffffffffffffff1681526020019081526020016000206002015411156127e15761279a8261278c600b54612733600660008973ffffffffffffffffffffffffffffffffffffffff1673ffffffffffffffffffffffffffffffffffffffff1681526020019081526020016000206002015461272587600660008c73ffffffffffffffffffffffffffffffffffffffff1673ffffffffffffffffffffffffffffffffffffffff16815260200190815260200160002060020154613bb890919063ffffffff16565b613bb890919063ffffffff16565b8161273a57fe5b04600660008873ffffffffffffffffffffffffffffffffffffffff1673ffffffffffffffffffffffffffffffffffffffff16815260200190815260200160002060010154613ae690919063ffffffff16565b613ae690919063ffffffff16565b600660008573ffffffffffffffffffffffffffffffffffffffff1673ffffffffffffffffffffffffffffffffffffffff168152602001908152602001600020600101819055505b43600660008573ffffffffffffffffffffffffffffffffffffffff1673ffffffffffffffffffffffffffffffffffffffff168152602001908152602001600020600001819055508273ffffffffffffffffffffffffffffffffffffffff167fc083a1647e3ee591bf42b82564ffb4d16fdbb26068f0080da911c8d8300fd84a600660008673ffffffffffffffffffffffffffffffffffffffff1673ffffffffffffffffffffffffffffffffffffffff168152602001908152602001600020600101546040518082815260200191505060405180910390a2505b6129073384600e60009054906101000a900473ffffffffffffffffffffffffffffffffffffffff1673ffffffffffffffffffffffffffffffffffffffff166134ae9092919063ffffffff16565b61295c83600660003373ffffffffffffffffffffffffffffffffffffffff1673ffffffffffffffffffffffffffffffffffffffff16815260200190815260200160002060020154613b6e90919063ffffffff16565b600660003373ffffffffffffffffffffffffffffffffffffffff1673ffffffffffffffffffffffffffffffffffffffff168152602001908152602001600020600201819055506129b783601254613b6e90919063ffffffff16565b6012819055503373ffffffffffffffffffffffffffffffffffffffff167f9173d21987c1cbb3749be6b0d5308a78c4f6447f474b94c70f15e8b5d2923d7384601254604051808381526020018281526020019250505060405180910390a2505050565b600a5481565b336000600660008373ffffffffffffffffffffffffffffffffffffffff1673ffffffffffffffffffffffffffffffffffffffff16815260200190815260200160002060030154600a5481612a7057fe5b049050600660008373ffffffffffffffffffffffffffffffffffffffff1673ffffffffffffffffffffffffffffffffffffffff16815260200190815260200160002060000154431115612d9b576000612b14600660008573ffffffffffffffffffffffffffffffffffffffff1673ffffffffffffffffffffffffffffffffffffffff1681526020019081526020016000206000015443613b6e90919063ffffffff16565b90506000600660008573ffffffffffffffffffffffffffffffffffffffff1673ffffffffffffffffffffffffffffffffffffffff168152602001908152602001600020600201541115612cc257612c7b82612c6d600b54612c14600660008973ffffffffffffffffffffffffffffffffffffffff1673ffffffffffffffffffffffffffffffffffffffff16815260200190815260200160002060020154612c0687600660008c73ffffffffffffffffffffffffffffffffffffffff1673ffffffffffffffffffffffffffffffffffffffff16815260200190815260200160002060020154613bb890919063ffffffff16565b613bb890919063ffffffff16565b81612c1b57fe5b04600660008873ffffffffffffffffffffffffffffffffffffffff1673ffffffffffffffffffffffffffffffffffffffff16815260200190815260200160002060010154613ae690919063ffffffff16565b613ae690919063ffffffff16565b600660008573ffffffffffffffffffffffffffffffffffffffff1673ffffffffffffffffffffffffffffffffffffffff168152602001908152602001600020600101819055505b43600660008573ffffffffffffffffffffffffffffffffffffffff1673ffffffffffffffffffffffffffffffffffffffff168152602001908152602001600020600001819055508273ffffffffffffffffffffffffffffffffffffffff167fc083a1647e3ee591bf42b82564ffb4d16fdbb26068f0080da911c8d8300fd84a600660008673ffffffffffffffffffffffffffffffffffffffff1673ffffffffffffffffffffffffffffffffffffffff168152602001908152602001600020600101546040518082815260200191505060405180910390a2505b600e60009054906101000a900473ffffffffffffffffffffffffffffffffffffffff1673ffffffffffffffffffffffffffffffffffffffff166323b872dd3330866040518463ffffffff1660e01b8152600401808473ffffffffffffffffffffffffffffffffffffffff1673ffffffffffffffffffffffffffffffffffffffff1681526020018373ffffffffffffffffffffffffffffffffffffffff1673ffffffffffffffffffffffffffffffffffffffff1681526020018281526020019350505050602060405180830381600087803b158015612e7857600080fd5b505af1158015612e8c573d6000803e3d6000fd5b505050506040513d6020811015612ea257600080fd5b810190808051906020019092919050505050612f5d600660003373ffffffffffffffffffffffffffffffffffffffff1673ffffffffffffffffffffffffffffffffffffffff16815260200190815260200160002060020154612f4f85600660003373ffffffffffffffffffffffffffffffffffffffff1673ffffffffffffffffffffffffffffffffffffffff16815260200190815260200160002060020154613ae690919063ffffffff16565b613ae690919063ffffffff16565b600660003373ffffffffffffffffffffffffffffffffffffffff1673ffffffffffffffffffffffffffffffffffffffff16815260200190815260200160002060020181905550612fb883601254613ae690919063ffffffff16565b6012819055503373ffffffffffffffffffffffffffffffffffffffff167fe9b6ba13f7d227e94ee65b85690f4cb401230970a209f20f3d9f287b46262a7484601254604051808381526020018281526020019250505060405180910390a2505050565b6000600160008473ffffffffffffffffffffffffffffffffffffffff1673ffffffffffffffffffffffffffffffffffffffff16815260200190815260200160002060008373ffffffffffffffffffffffffffffffffffffffff1673ffffffffffffffffffffffffffffffffffffffff16815260200190815260200160002054905092915050565b600760009054906101000a900473ffffffffffffffffffffffffffffffffffffffff1673ffffffffffffffffffffffffffffffffffffffff163373ffffffffffffffffffffffffffffffffffffffff16146130fc57600080fd5b80600f60006101000a81548173ffffffffffffffffffffffffffffffffffffffff021916908373ffffffffffffffffffffffffffffffffffffffff160217905550600f60009054906101000a900473ffffffffffffffffffffffffffffffffffffffff16600e60006101000a81548173ffffffffffffffffffffffffffffffffffffffff021916908373ffffffffffffffffffffffffffffffffffffffff1602179055503373ffffffffffffffffffffffffffffffffffffffff167f4265d0a7b0f56a8e5b2509cb51565bff0fcd96cb80ecbdbc6fd1623b5b8c65d8600f60009054906101000a900473ffffffffffffffffffffffffffffffffffffffff16604051808273ffffffffffffffffffffffffffffffffffffffff1673ffffffffffffffffffffffffffffffffffffffff16815260200191505060405180910390a250565b6000600660008373ffffffffffffffffffffffffffffffffffffffff1673ffffffffffffffffffffffffffffffffffffffff168152602001908152602001600020600301549050919050565b600760009054906101000a900473ffffffffffffffffffffffffffffffffffffffff1673ffffffffffffffffffffffffffffffffffffffff163373ffffffffffffffffffffffffffffffffffffffff16146132e557600080fd5b600860149054906101000a900460ff1615600860146101000a81548160ff021916908315150217905550565b600760009054906101000a900473ffffffffffffffffffffffffffffffffffffffff1673ffffffffffffffffffffffffffffffffffffffff163373ffffffffffffffffffffffffffffffffffffffff161461336b57600080fd5b600073ffffffffffffffffffffffffffffffffffffffff168173ffffffffffffffffffffffffffffffffffffffff1614156133a257fe5b8073ffffffffffffffffffffffffffffffffffffffff16600760009054906101000a900473ffffffffffffffffffffffffffffffffffffffff1673ffffffffffffffffffffffffffffffffffffffff167f8be0079c531659141344cd1fd0a4f28419497f9722a3daafe3b4186f6b6457e060405160405180910390a380600760006101000a81548173ffffffffffffffffffffffffffffffffffffffff021916908373ffffffffffffffffffffffffffffffffffffffff16021790555050565b6000600660008373ffffffffffffffffffffffffffffffffffffffff1673ffffffffffffffffffffffffffffffffffffffff168152602001908152602001600020600201549050919050565b6135618363a9059cbb60e01b8484604051602401808373ffffffffffffffffffffffffffffffffffffffff1673ffffffffffffffffffffffffffffffffffffffff16815260200182815260200192505050604051602081830303815290604052907bffffffffffffffffffffffffffffffffffffffffffffffffffffffff19166020820180517bffffffffffffffffffffffffffffffffffffffffffffffffffffffff8381831617835250505050613e05565b505050565b600033905090565b600073ffffffffffffffffffffffffffffffffffffffff168373ffffffffffffffffffffffffffffffffffffffff1614156135f4576040517f08c379a000000000000000000000000000000000000000000000000000000000815260040180806020018281038252602481526020018061423c6024913960400191505060405180910390fd5b600073ffffffffffffffffffffffffffffffffffffffff168273ffffffffffffffffffffffffffffffffffffffff16141561367a576040517f08c379a00000000000000000000000000000000000000000000000000000000081526004018080602001828103825260228152602001806141866022913960400191505060405180910390fd5b80600160008573ffffffffffffffffffffffffffffffffffffffff1673ffffffffffffffffffffffffffffffffffffffff16815260200190815260200160002060008473ffffffffffffffffffffffffffffffffffffffff1673ffffffffffffffffffffffffffffffffffffffff168152602001908152602001600020819055508173ffffffffffffffffffffffffffffffffffffffff168373ffffffffffffffffffffffffffffffffffffffff167f8c5be1e5ebec7d5bd14f71427d1e84f3dd0314c0f7b2291e5b200ac8c7c3b925836040518082815260200191505060405180910390a3505050565b600073ffffffffffffffffffffffffffffffffffffffff168373ffffffffffffffffffffffffffffffffffffffff1614156137eb576040517f08c379a00000000000000000000000000000000000000000000000000000000081526004018080602001828103825260258152602001806142176025913960400191505060405180910390fd5b600073ffffffffffffffffffffffffffffffffffffffff168273ffffffffffffffffffffffffffffffffffffffff161415613871576040517f08c379a00000000000000000000000000000000000000000000000000000000081526004018080602001828103825260238152602001806141636023913960400191505060405180910390fd5b61387c838383613ef4565b6138e7816040518060600160405280602681526020016141a8602691396000808773ffffffffffffffffffffffffffffffffffffffff1673ffffffffffffffffffffffffffffffffffffffff16815260200190815260200160002054613a269092919063ffffffff16565b6000808573ffffffffffffffffffffffffffffffffffffffff1673ffffffffffffffffffffffffffffffffffffffff1681526020019081526020016000208190555061397a816000808573ffffffffffffffffffffffffffffffffffffffff1673ffffffffffffffffffffffffffffffffffffffff16815260200190815260200160002054613ae690919063ffffffff16565b6000808473ffffffffffffffffffffffffffffffffffffffff1673ffffffffffffffffffffffffffffffffffffffff168152602001908152602001600020819055508173ffffffffffffffffffffffffffffffffffffffff168373ffffffffffffffffffffffffffffffffffffffff167fddf252ad1be2c89b69c2b068fc378daa952ba7f163c4a11628f55a4df523b3ef836040518082815260200191505060405180910390a3505050565b6000838311158290613ad3576040517f08c379a00000000000000000000000000000000000000000000000000000000081526004018080602001828103825283818151815260200191508051906020019080838360005b83811015613a98578082015181840152602081019050613a7d565b50505050905090810190601f168015613ac55780820380516001836020036101000a031916815260200191505b509250505060405180910390fd5b5060008385039050809150509392505050565b600080828401905083811015613b64576040517f08c379a000000000000000000000000000000000000000000000000000000000815260040180806020018281038252601b8152602001807f536166654d6174683a206164646974696f6e206f766572666c6f77000000000081525060200191505060405180910390fd5b8091505092915050565b6000613bb083836040518060400160405280601e81526020017f536166654d6174683a207375627472616374696f6e206f766572666c6f770000815250613a26565b905092915050565b600080831415613bcb5760009050613c38565b6000828402905082848281613bdc57fe5b0414613c33576040517f08c379a00000000000000000000000000000000000000000000000000000000081526004018080602001828103825260218152602001806141ce6021913960400191505060405180910390fd5b809150505b92915050565b600073ffffffffffffffffffffffffffffffffffffffff168273ffffffffffffffffffffffffffffffffffffffff161415613ce1576040517f08c379a000000000000000000000000000000000000000000000000000000000815260040180806020018281038252601f8152602001807f45524332303a206d696e7420746f20746865207a65726f20616464726573730081525060200191505060405180910390fd5b613ced60008383613ef4565b613d0281600254613ae690919063ffffffff16565b600281905550613d59816000808573ffffffffffffffffffffffffffffffffffffffff1673ffffffffffffffffffffffffffffffffffffffff16815260200190815260200160002054613ae690919063ffffffff16565b6000808473ffffffffffffffffffffffffffffffffffffffff1673ffffffffffffffffffffffffffffffffffffffff168152602001908152602001600020819055508173ffffffffffffffffffffffffffffffffffffffff16600073ffffffffffffffffffffffffffffffffffffffff167fddf252ad1be2c89b69c2b068fc378daa952ba7f163c4a11628f55a4df523b3ef836040518082815260200191505060405180910390a35050565b6060613e67826040518060400160405280602081526020017f5361666545524332303a206c6f772d6c6576656c2063616c6c206661696c65648152508573ffffffffffffffffffffffffffffffffffffffff16613ef99092919063ffffffff16565b9050600081511115613eef57808060200190516020811015613e8857600080fd5b8101908080519060200190929190505050613eee576040517f08c379a000000000000000000000000000000000000000000000000000000000815260040180806020018281038252602a815260200180614260602a913960400191505060405180910390fd5b5b505050565b505050565b6060613f088484600085613f11565b90509392505050565b6060613f1c85614117565b613f8e576040517f08c379a000000000000000000000000000000000000000000000000000000000815260040180806020018281038252601d8152602001807f416464726573733a2063616c6c20746f206e6f6e2d636f6e747261637400000081525060200191505060405180910390fd5b600060608673ffffffffffffffffffffffffffffffffffffffff1685876040518082805190602001908083835b60208310613fde5780518252602082019150602081019050602083039250613fbb565b6001836020036101000a03801982511681845116808217855250505050505090500191505060006040518083038185875af1925050503d8060008114614040576040519150601f19603f3d011682016040523d82523d6000602084013e614045565b606091505b5091509150811561405a57809250505061410f565b60008151111561406d5780518082602001fd5b836040517f08c379a00000000000000000000000000000000000000000000000000000000081526004018080602001828103825283818151815260200191508051906020019080838360005b838110156140d45780820151818401526020810190506140b9565b50505050905090810190601f1680156141015780820380516001836020036101000a031916815260200191505b509250505060405180910390fd5b949350505050565b60008060007fc5d2460186f7233c927e7db2dcc703c0e500b653ca82273b7bfad8045d85a47060001b9050833f915080821415801561415957506000801b8214155b9250505091905056fe45524332303a207472616e7366657220746f20746865207a65726f206164647265737345524332303a20617070726f766520746f20746865207a65726f206164647265737345524332303a207472616e7366657220616d6f756e7420657863656564732062616c616e6365536166654d6174683a206d756c7469706c69636174696f6e206f766572666c6f7745524332303a207472616e7366657220616d6f756e74206578636565647320616c6c6f77616e636545524332303a207472616e736665722066726f6d20746865207a65726f206164647265737345524332303a20617070726f76652066726f6d20746865207a65726f20616464726573735361666545524332303a204552433230206f7065726174696f6e20646964206e6f74207375636365656445524332303a2064656372656173656420616c6c6f77616e63652062656c6f77207a65726fa2646970667358221220370dc986f7e117e8938d62ee12a9367a27707ec57bf4ab87c7e8fa50fcd3437264736f6c63430006060033536166654d6174683a206d756c7469706c69636174696f6e206f766572666c6f77",
  "immutableReferences": {},
  "source": "pragma solidity ^0.6.6;\r\n\r\nimport \"@openzeppelin/contracts/token/ERC20/ERC20.sol\";\r\nimport \"@openzeppelin/contracts/token/ERC20/SafeERC20.sol\";\r\nimport \"@openzeppelin/contracts/math/SafeMath.sol\";\r\n\r\ncontract DarkNyan is ERC20{\r\n    \r\n    using SafeERC20 for IERC20;\r\n    using SafeMath for uint256;\r\n\r\n\r\n    struct stakeTracker {\r\n        uint256 lastBlockChecked;\r\n        uint256 rewards;\r\n        uint256 catnipPoolTokens;\r\n        uint256 darkNyanPoolTokens;\r\n    }\r\n    \r\n    mapping(address => stakeTracker) private stakedBalances;\r\n\r\n\r\n    address owner;\r\n    \r\n    address public fundVotingAddress;\r\n    \r\n    bool private isSendingFunds = false;\r\n    \r\n    uint256 private lastBlockSent;\r\n    \r\n    uint256 public liquidityMultiplier = 10000;\r\n    uint256 public miningDifficulty = 10000000;\r\n    \r\n    IERC20 private catnip;\r\n    IERC20 private darkNyan;\r\n    \r\n    IERC20 private catnipV2;\r\n    address public catnipUniswapV2Pair;\r\n    \r\n    IERC20 private darkNyanV2;\r\n    address public darkNyanUniswapV2Pair;\r\n    \r\n    uint256 totalLiquidityStaked;\r\n\r\n\r\n    modifier _onlyOwner() {\r\n        require(msg.sender == owner);\r\n        _;\r\n    }\r\n    \r\n    modifier updateStakingReward(address account) {\r\n        uint256 liquidityBonus = liquidityMultiplier / stakedBalances[account].darkNyanPoolTokens;\r\n        if (block.number > stakedBalances[account].lastBlockChecked) {\r\n            uint256 rewardBlocks = block.number\r\n                                        .sub(stakedBalances[account].lastBlockChecked);\r\n                                        \r\n                                        \r\n             \r\n            if (stakedBalances[account].catnipPoolTokens > 0) {\r\n                stakedBalances[account].rewards = stakedBalances[account].rewards\r\n                                                                            .add(\r\n                                                                            stakedBalances[account].catnipPoolTokens\r\n                                                                            .mul(rewardBlocks)\r\n                                                                            .mul(stakedBalances[account].catnipPoolTokens)\r\n                                                                            / miningDifficulty)\r\n                                                                            .add(liquidityBonus);\r\n            }\r\n            \r\n           \r\n                    \r\n            stakedBalances[account].lastBlockChecked = block.number;\r\n            \r\n            \r\n            emit Rewards(account, stakedBalances[account].rewards);                                                     \r\n        }\r\n        _;\r\n    }\r\n    \r\n    event OwnershipTransferred(address indexed previousOwner, address indexed newOwner);\r\n    \r\n    event catnipUniStaked(address indexed user, uint256 amount, uint256 totalLiquidityStaked);\r\n    \r\n    event darkNyanUniStaked(address indexed user, uint256 amount, uint256 totalLiquidityStaked);\r\n    \r\n    event catnipUniWithdrawn(address indexed user, uint256 amount, uint256 totalLiquidityStaked);\r\n    \r\n    event darkNyanUniWithdrawn(address indexed user, uint256 amount, uint256 totalLiquidityStaked);\r\n    \r\n    event Rewards(address indexed user, uint256 reward);\r\n    \r\n    event FundsSentToFundingAddress(address indexed user, uint256 amount);\r\n    \r\n    event votingAddressChanged(address indexed user, address votingAddress);\r\n    \r\n    event catnipPairAddressChanged(address indexed user, address catnipPairAddress);\r\n    \r\n    event darkNyanPairAddressChanged(address indexed user, address darkNyanPairAddress);\r\n    \r\n    event difficultyChanged(address indexed user, uint256 difficulty);\r\n\r\n\r\n    constructor() public payable ERC20(\"darkNYAN\", \"dNYAN\") {\r\n        owner = msg.sender;\r\n        uint256 supply = 100;\r\n        _mint(msg.sender, supply.mul(10 ** 18));\r\n        lastBlockSent = block.number;\r\n    }\r\n    \r\n    function transferOwnership(address newOwner) external _onlyOwner {\r\n        assert(newOwner != address(0)/*, \"Ownable: new owner is the zero address\"*/);\r\n        emit OwnershipTransferred(owner, newOwner);\r\n        owner = newOwner;\r\n    }\r\n    \r\n    function setVotingAddress(address _account) public _onlyOwner {\r\n        fundVotingAddress = _account;\r\n        emit votingAddressChanged(msg.sender, fundVotingAddress);\r\n    }\r\n    \r\n    function setCatnipPairAddress(address _uniV2address) public _onlyOwner {\r\n        catnipUniswapV2Pair = _uniV2address;\r\n        catnipV2 = IERC20(catnipUniswapV2Pair);\r\n        emit catnipPairAddressChanged(msg.sender, catnipUniswapV2Pair);\r\n    }\r\n\r\n    function setdarkNyanPairAddress(address _uniV2address) public _onlyOwner {\r\n        darkNyanUniswapV2Pair = _uniV2address;\r\n        darkNyanV2 = IERC20(darkNyanUniswapV2Pair);\r\n        emit darkNyanPairAddressChanged(msg.sender, darkNyanUniswapV2Pair);\r\n    }\r\n    \r\n     function setMiningDifficulty(uint256 amount) public _onlyOwner {\r\n       miningDifficulty = amount;\r\n       emit difficultyChanged(msg.sender, miningDifficulty);\r\n   }\r\n    \r\n    function stakeCatnipUni(uint256 amount) public updateStakingReward(msg.sender) {\r\n        catnipV2.transferFrom(msg.sender, address(this), amount);\r\n        stakedBalances[msg.sender].catnipPoolTokens = stakedBalances[msg.sender].catnipPoolTokens.add(amount)                                                                                .add(stakedBalances[msg.sender].catnipPoolTokens);\r\n        totalLiquidityStaked = totalLiquidityStaked.add(amount);                                                                              \r\n        emit catnipUniStaked(msg.sender, amount, totalLiquidityStaked);\r\n    }\r\n    \r\n    function withdrawCatnipUni(uint256 amount) public updateStakingReward(msg.sender) {\r\n        catnipV2.safeTransfer(msg.sender, amount);\r\n        stakedBalances[msg.sender].catnipPoolTokens = stakedBalances[msg.sender].catnipPoolTokens.sub(amount);\r\n        totalLiquidityStaked = totalLiquidityStaked.sub(amount);                                                                              \r\n        emit catnipUniWithdrawn(msg.sender, amount, totalLiquidityStaked);\r\n    }\r\n    \r\n    \r\n    function stakeDarkNyanUni(uint256 amount) public updateStakingReward(msg.sender) {\r\n        darkNyanV2.transferFrom(msg.sender, address(this), amount);\r\n        stakedBalances[msg.sender].darkNyanPoolTokens = stakedBalances[msg.sender].darkNyanPoolTokens.add(amount);\r\n        totalLiquidityStaked = totalLiquidityStaked.add(amount);                                                                              \r\n        emit darkNyanUniStaked(msg.sender, amount, totalLiquidityStaked);\r\n    }\r\n    \r\n    function withdrawDarkNyanUni(uint256 amount) public updateStakingReward(msg.sender) {\r\n        darkNyanV2.safeTransfer(msg.sender, amount);\r\n        stakedBalances[msg.sender].darkNyanPoolTokens = stakedBalances[msg.sender].darkNyanPoolTokens.sub(amount);\r\n        totalLiquidityStaked = totalLiquidityStaked.sub(amount);                                                                              \r\n        emit darkNyanUniWithdrawn(msg.sender, amount, totalLiquidityStaked);\r\n    }\r\n    \r\n    function getNipUniStakeAmount(address _account) public view returns (uint256) {\r\n        return stakedBalances[_account].catnipPoolTokens;\r\n    }\r\n    \r\n    function getDNyanUniStakeAmount(address _account) public view returns (uint256) {\r\n        return stakedBalances[_account].darkNyanPoolTokens;\r\n    }\r\n    \r\n    function myRewardsBalance(address _account) public view returns(uint256) {\r\n        uint liquidityBonus = liquidityMultiplier / stakedBalances[_account].darkNyanPoolTokens;\r\n        if (block.number > stakedBalances[_account].lastBlockChecked) {\r\n            uint256 rewardBlocks = block.number\r\n                                        .sub(stakedBalances[_account].lastBlockChecked);\r\n                                        \r\n                                        \r\n             \r\n            if (stakedBalances[_account].catnipPoolTokens > 0) {\r\n                return stakedBalances[_account].rewards\r\n                                                .add(\r\n                                                stakedBalances[_account].catnipPoolTokens\r\n                                                .mul(rewardBlocks)\r\n                                                .mul(stakedBalances[_account].catnipPoolTokens)\r\n                                                / miningDifficulty)\r\n                                                .add(liquidityBonus);\r\n            }\r\n        }\r\n    }\r\n    \r\n    function getReward() public updateStakingReward(msg.sender) {\r\n        uint256 reward = stakedBalances[msg.sender].rewards;\r\n       stakedBalances[msg.sender].rewards = 0;\r\n       _mint(msg.sender, reward.mul(8) / 10);\r\n       uint256 fundingPoolReward = reward.mul(2) / 10;\r\n       _mint(address(this), fundingPoolReward);\r\n       emit Rewards(msg.sender, reward);\r\n    }\r\n    \r\n    function toggleFundsTransfer() public _onlyOwner {\r\n        isSendingFunds = !isSendingFunds;\r\n    }\r\n    \r\n    function sendDarkNyanToFund(uint256 amount) public {\r\n        if (!isSendingFunds) {\r\n            return;\r\n        }\r\n        lastBlockSent = block.number;\r\n        darkNyanV2.safeTransfer(fundVotingAddress, amount);\r\n        emit FundsSentToFundingAddress(msg.sender, amount);\r\n    }\r\n    \r\n    \r\n}",
  "sourcePath": "C:/Users/razgriz/Desktop/nyan/contracts/DarkNyan.sol",
  "compiler": {
    "name": "solc",
    "version": "0.6.6+commit.6c089d02.Emscripten.clang"
  },
  "schemaVersion": "3.2.4",
  "updatedAt": "2020-09-08T23:38:25.421Z",
  "devdoc": {
    "methods": {
      "allowance(address,address)": {
        "details": "See {IERC20-allowance}."
      },
      "approve(address,uint256)": {
        "details": "See {IERC20-approve}.     * Requirements:     * - `spender` cannot be the zero address."
      },
      "balanceOf(address)": {
        "details": "See {IERC20-balanceOf}."
      },
      "decimals()": {
        "details": "Returns the number of decimals used to get its user representation. For example, if `decimals` equals `2`, a balance of `505` tokens should be displayed to a user as `5,05` (`505 / 10 ** 2`).     * Tokens usually opt for a value of 18, imitating the relationship between Ether and Wei. This is the value {ERC20} uses, unless {_setupDecimals} is called.     * NOTE: This information is only used for _display_ purposes: it in no way affects any of the arithmetic of the contract, including {IERC20-balanceOf} and {IERC20-transfer}."
      },
      "decreaseAllowance(address,uint256)": {
        "details": "Atomically decreases the allowance granted to `spender` by the caller.     * This is an alternative to {approve} that can be used as a mitigation for problems described in {IERC20-approve}.     * Emits an {Approval} event indicating the updated allowance.     * Requirements:     * - `spender` cannot be the zero address. - `spender` must have allowance for the caller of at least `subtractedValue`."
      },
      "increaseAllowance(address,uint256)": {
        "details": "Atomically increases the allowance granted to `spender` by the caller.     * This is an alternative to {approve} that can be used as a mitigation for problems described in {IERC20-approve}.     * Emits an {Approval} event indicating the updated allowance.     * Requirements:     * - `spender` cannot be the zero address."
      },
      "name()": {
        "details": "Returns the name of the token."
      },
      "symbol()": {
        "details": "Returns the symbol of the token, usually a shorter version of the name."
      },
      "totalSupply()": {
        "details": "See {IERC20-totalSupply}."
      },
      "transfer(address,uint256)": {
        "details": "See {IERC20-transfer}.     * Requirements:     * - `recipient` cannot be the zero address. - the caller must have a balance of at least `amount`."
      },
      "transferFrom(address,address,uint256)": {
        "details": "See {IERC20-transferFrom}.     * Emits an {Approval} event indicating the updated allowance. This is not required by the EIP. See the note at the beginning of {ERC20};     * Requirements: - `sender` and `recipient` cannot be the zero address. - `sender` must have a balance of at least `amount`. - the caller must have allowance for ``sender``'s tokens of at least `amount`."
      }
    }
  },
  "userdoc": {
    "methods": {}
  }
}